{
  "_format": "hh-sol-artifact-1",
  "contractName": "StakeMindToken",
  "sourceName": "contracts/StakeMindToken.sol",
  "abi": [
    {
      "inputs": [],
      "stateMutability": "nonpayable",
      "type": "constructor"
    },
    {
      "anonymous": false,
      "inputs": [
        {
          "indexed": true,
          "internalType": "address",
          "name": "staker",
          "type": "address"
        },
        {
          "indexed": true,
          "internalType": "uint256",
          "name": "amountWithdrawn",
          "type": "uint256"
        }
      ],
      "name": "StakeWithdrawn",
      "type": "event"
    },
    {
      "anonymous": false,
      "inputs": [
        {
          "indexed": true,
          "internalType": "address",
          "name": "staker",
          "type": "address"
        },
        {
          "indexed": true,
          "internalType": "uint256",
          "name": "amountStaked",
          "type": "uint256"
        }
      ],
      "name": "TokenStaked",
      "type": "event"
    },
    {
      "inputs": [
        {
          "internalType": "uint256",
          "name": "_stakeId",
          "type": "uint256"
        }
      ],
      "name": "getDetailsOfASingleStake",
      "outputs": [
        {
          "components": [
            {
              "internalType": "uint256",
              "name": "amount",
              "type": "uint256"
            },
            {
              "internalType": "uint256",
              "name": "timeStaked",
              "type": "uint256"
            },
            {
              "internalType": "uint256",
              "name": "duration",
              "type": "uint256"
            },
            {
              "internalType": "address",
              "name": "owner",
              "type": "address"
            },
            {
              "internalType": "uint256",
              "name": "id",
              "type": "uint256"
            },
            {
              "internalType": "bool",
              "name": "liquidated",
              "type": "bool"
            },
            {
              "internalType": "uint256",
              "name": "reward",
              "type": "uint256"
            }
          ],
          "internalType": "struct StakeMindToken.Stake",
          "name": "",
          "type": "tuple"
        }
      ],
      "stateMutability": "view",
      "type": "function"
    },
    {
      "inputs": [],
      "name": "getStakesForUser",
      "outputs": [
        {
          "components": [
            {
              "internalType": "uint256",
              "name": "amount",
              "type": "uint256"
            },
            {
              "internalType": "uint256",
              "name": "timeStaked",
              "type": "uint256"
            },
            {
              "internalType": "uint256",
              "name": "duration",
              "type": "uint256"
            },
            {
              "internalType": "address",
              "name": "owner",
              "type": "address"
            },
            {
              "internalType": "uint256",
              "name": "id",
              "type": "uint256"
            },
            {
              "internalType": "bool",
              "name": "liquidated",
              "type": "bool"
            },
            {
              "internalType": "uint256",
              "name": "reward",
              "type": "uint256"
            }
          ],
          "internalType": "struct StakeMindToken.Stake[]",
          "name": "",
          "type": "tuple[]"
        }
      ],
      "stateMutability": "view",
      "type": "function"
    },
    {
      "inputs": [],
      "name": "getTotalStakeBalance",
      "outputs": [
        {
          "internalType": "uint256",
          "name": "",
          "type": "uint256"
        }
      ],
      "stateMutability": "view",
      "type": "function"
    },
    {
      "inputs": [
        {
          "internalType": "uint256",
          "name": "_stakeId",
          "type": "uint256"
        }
      ],
      "name": "liquidate",
      "outputs": [],
      "stateMutability": "nonpayable",
      "type": "function"
    },
    {
      "inputs": [
        {
          "internalType": "uint256",
          "name": "_amount",
          "type": "uint256"
        },
        {
          "internalType": "uint256",
          "name": "_duration",
          "type": "uint256"
        }
      ],
      "name": "stake",
      "outputs": [],
      "stateMutability": "nonpayable",
      "type": "function"
    },
    {
      "inputs": [],
      "name": "tokenAddress",
      "outputs": [
        {
          "internalType": "address",
          "name": "",
          "type": "address"
        }
      ],
      "stateMutability": "view",
      "type": "function"
    }
  ],
  "bytecode": "0x6080604052348015600f57600080fd5b5073a02e9fec84c5a1da7ab98817e14191a714f9287d6000806101000a81548173ffffffffffffffffffffffffffffffffffffffff021916908373ffffffffffffffffffffffffffffffffffffffff1602179055506118f8806100736000396000f3fe608060405234801561001057600080fd5b50600436106100625760003560e01c8063415f1240146100675780634399e917146100835780635a867724146100b35780637b0472f0146100d1578063965a62df146100ed5780639d76ea581461010b575b600080fd5b610081600480360381019061007c9190610ffd565b610129565b005b61009d60048036038101906100989190610ffd565b610497565b6040516100aa9190611123565b60405180910390f35b6100bb6106c2565b6040516100c8919061114d565b60405180910390f35b6100eb60048036038101906100e69190611168565b610777565b005b6100f5610d13565b60405161010291906112e5565b60405180910390f35b610113610ec1565b6040516101209190611316565b60405180910390f35b600073ffffffffffffffffffffffffffffffffffffffff163373ffffffffffffffffffffffffffffffffffffffff1603610198576040517f08c379a000000000000000000000000000000000000000000000000000000000815260040161018f9061138e565b60405180910390fd5b60006001826101a791906113dd565b90506000600260003373ffffffffffffffffffffffffffffffffffffffff1673ffffffffffffffffffffffffffffffffffffffff168152602001908152602001600020905080805490508210610232576040517f08c379a00000000000000000000000000000000000000000000000000000000081526004016102299061145d565b60405180910390fd5b60008183815481106102475761024661147d565b5b906000526020600020906007020190508060050160009054906101000a900460ff16156102a9576040517f08c379a00000000000000000000000000000000000000000000000000000000081526004016102a0906114f8565b60405180910390fd5b8060000154600160003373ffffffffffffffffffffffffffffffffffffffff1673ffffffffffffffffffffffffffffffffffffffff16815260200190815260200160002060008282546102fc91906113dd565b9250508190555060018160050160006101000a81548160ff02191690831515021790555060008160060154905060008260020154836001015461033f9190611518565b42109050801561034e57600091505b60008284600001546103609190611518565b905060008060009054906101000a900473ffffffffffffffffffffffffffffffffffffffff1673ffffffffffffffffffffffffffffffffffffffff1663a9059cbb33846040518363ffffffff1660e01b81526004016103c092919061154c565b6020604051808303816000875af11580156103df573d6000803e3d6000fd5b505050506040513d601f19601f8201168201806040525081019061040391906115a1565b905080610445576040517f08c379a000000000000000000000000000000000000000000000000000000000815260040161043c9061161a565b60405180910390fd5b84600001543373ffffffffffffffffffffffffffffffffffffffff167f8108595eb6bad3acefa9da467d90cc2217686d5c5ac85460f8b7849c840645fc60405160405180910390a35050505050505050565b61049f610f6d565b600073ffffffffffffffffffffffffffffffffffffffff163373ffffffffffffffffffffffffffffffffffffffff160361050e576040517f08c379a00000000000000000000000000000000000000000000000000000000081526004016105059061138e565b60405180910390fd5b600060018361051d91906113dd565b90506000600260003373ffffffffffffffffffffffffffffffffffffffff1673ffffffffffffffffffffffffffffffffffffffff168152602001908152602001600020805480602002602001604051908101604052809291908181526020016000905b8282101561065557838290600052602060002090600702016040518060e00160405290816000820154815260200160018201548152602001600282015481526020016003820160009054906101000a900473ffffffffffffffffffffffffffffffffffffffff1673ffffffffffffffffffffffffffffffffffffffff1673ffffffffffffffffffffffffffffffffffffffff168152602001600482015481526020016005820160009054906101000a900460ff1615151515815260200160068201548152505081526020019060010190610580565b5050505090508051821061069e576040517f08c379a00000000000000000000000000000000000000000000000000000000081526004016106959061145d565b60405180910390fd5b8082815181106106b1576106b061147d565b5b602002602001015192505050919050565b60008073ffffffffffffffffffffffffffffffffffffffff163373ffffffffffffffffffffffffffffffffffffffff1603610732576040517f08c379a00000000000000000000000000000000000000000000000000000000081526004016107299061138e565b60405180910390fd5b600160003373ffffffffffffffffffffffffffffffffffffffff1673ffffffffffffffffffffffffffffffffffffffff16815260200190815260200160002054905090565b600073ffffffffffffffffffffffffffffffffffffffff163373ffffffffffffffffffffffffffffffffffffffff16036107e6576040517f08c379a00000000000000000000000000000000000000000000000000000000081526004016107dd9061138e565b60405180910390fd5b601e8114806107f55750603c81145b806108005750605a81145b61083f576040517f08c379a000000000000000000000000000000000000000000000000000000000815260040161083690611686565b60405180910390fd5b60008060009054906101000a900473ffffffffffffffffffffffffffffffffffffffff1673ffffffffffffffffffffffffffffffffffffffff166370a08231336040518263ffffffff1660e01b815260040161089b9190611316565b602060405180830381865afa1580156108b8573d6000803e3d6000fd5b505050506040513d601f19601f820116820180604052508101906108dc91906116bb565b905082811015610921576040517f08c379a000000000000000000000000000000000000000000000000000000000815260040161091890611734565b60405180910390fd5b60008060009054906101000a900473ffffffffffffffffffffffffffffffffffffffff1673ffffffffffffffffffffffffffffffffffffffff1663dd62ed3e33306040518363ffffffff1660e01b815260040161097f929190611754565b602060405180830381865afa15801561099c573d6000803e3d6000fd5b505050506040513d601f19601f820116820180604052508101906109c091906116bb565b905083811015610a05576040517f08c379a00000000000000000000000000000000000000000000000000000000081526004016109fc906117c9565b60405180910390fd5b60008060009054906101000a900473ffffffffffffffffffffffffffffffffffffffff1673ffffffffffffffffffffffffffffffffffffffff166323b872dd3330886040518463ffffffff1660e01b8152600401610a65939291906117e9565b6020604051808303816000875af1158015610a84573d6000803e3d6000fd5b505050506040513d601f19601f82011682018060405250810190610aa891906115a1565b905080610aea576040517f08c379a0000000000000000000000000000000000000000000000000000000008152600401610ae19061161a565b60405180910390fd5b6000600260003373ffffffffffffffffffffffffffffffffffffffff1673ffffffffffffffffffffffffffffffffffffffff16815260200190815260200160002090506000610b398787610ee5565b905060006040518060e001604052808981526020014281526020016201518089610b639190611820565b81526020013373ffffffffffffffffffffffffffffffffffffffff16815260200160018580549050610b959190611518565b81526020016000151581526020018381525090508281908060018154018082558091505060019003906000526020600020906007020160009091909190915060008201518160000155602082015181600101556040820151816002015560608201518160030160006101000a81548173ffffffffffffffffffffffffffffffffffffffff021916908373ffffffffffffffffffffffffffffffffffffffff1602179055506080820151816004015560a08201518160050160006101000a81548160ff02191690831515021790555060c08201518160060155505087600160003373ffffffffffffffffffffffffffffffffffffffff1673ffffffffffffffffffffffffffffffffffffffff1681526020019081526020016000206000828254610cbe9190611518565b92505081905550873373ffffffffffffffffffffffffffffffffffffffff167f1fdab8a8457aaf782e4b6217d6ffa6f5006eda7e50922dd092b2e1524275d77460405160405180910390a35050505050505050565b6060600073ffffffffffffffffffffffffffffffffffffffff163373ffffffffffffffffffffffffffffffffffffffff1603610d84576040517f08c379a0000000000000000000000000000000000000000000000000000000008152600401610d7b9061138e565b60405180910390fd5b600260003373ffffffffffffffffffffffffffffffffffffffff1673ffffffffffffffffffffffffffffffffffffffff168152602001908152602001600020805480602002602001604051908101604052809291908181526020016000905b82821015610eb857838290600052602060002090600702016040518060e00160405290816000820154815260200160018201548152602001600282015481526020016003820160009054906101000a900473ffffffffffffffffffffffffffffffffffffffff1673ffffffffffffffffffffffffffffffffffffffff1673ffffffffffffffffffffffffffffffffffffffff168152602001600482015481526020016005820160009054906101000a900460ff1615151515815260200160068201548152505081526020019060010190610de3565b50505050905090565b60008054906101000a900473ffffffffffffffffffffffffffffffffffffffff1681565b60008060009050605a8303610f14576064600585610f039190611820565b610f0d9190611891565b9050610f63565b603c8303610f3c576064600185610f2b9190611820565b610f359190611891565b9050610f62565b601e8303610f6157612710600585610f549190611820565b610f5e9190611891565b90505b5b5b8091505092915050565b6040518060e00160405280600081526020016000815260200160008152602001600073ffffffffffffffffffffffffffffffffffffffff16815260200160008152602001600015158152602001600081525090565b600080fd5b6000819050919050565b610fda81610fc7565b8114610fe557600080fd5b50565b600081359050610ff781610fd1565b92915050565b60006020828403121561101357611012610fc2565b5b600061102184828501610fe8565b91505092915050565b61103381610fc7565b82525050565b600073ffffffffffffffffffffffffffffffffffffffff82169050919050565b600061106482611039565b9050919050565b61107481611059565b82525050565b60008115159050919050565b61108f8161107a565b82525050565b60e0820160008201516110ab600085018261102a565b5060208201516110be602085018261102a565b5060408201516110d1604085018261102a565b5060608201516110e4606085018261106b565b5060808201516110f7608085018261102a565b5060a082015161110a60a0850182611086565b5060c082015161111d60c085018261102a565b50505050565b600060e0820190506111386000830184611095565b92915050565b61114781610fc7565b82525050565b6000602082019050611162600083018461113e565b92915050565b6000806040838503121561117f5761117e610fc2565b5b600061118d85828601610fe8565b925050602061119e85828601610fe8565b9150509250929050565b600081519050919050565b600082825260208201905092915050565b6000819050602082019050919050565b60e0820160008201516111ea600085018261102a565b5060208201516111fd602085018261102a565b506040820151611210604085018261102a565b506060820151611223606085018261106b565b506080820151611236608085018261102a565b5060a082015161124960a0850182611086565b5060c082015161125c60c085018261102a565b50505050565b600061126e83836111d4565b60e08301905092915050565b6000602082019050919050565b6000611292826111a8565b61129c81856111b3565b93506112a7836111c4565b8060005b838110156112d85781516112bf8882611262565b97506112ca8361127a565b9250506001810190506112ab565b5085935050505092915050565b600060208201905081810360008301526112ff8184611287565b905092915050565b61131081611059565b82525050565b600060208201905061132b6000830184611307565b92915050565b600082825260208201905092915050565b7f41646472657373207a65726f2044657465637465640000000000000000000000600082015250565b6000611378601583611331565b915061138382611342565b602082019050919050565b600060208201905081810360008301526113a78161136b565b9050919050565b7f4e487b7100000000000000000000000000000000000000000000000000000000600052601160045260246000fd5b60006113e882610fc7565b91506113f383610fc7565b925082820390508181111561140b5761140a6113ae565b5b92915050565b7f5374616b6520496420697320496e76616c696400000000000000000000000000600082015250565b6000611447601383611331565b915061145282611411565b602082019050919050565b600060208201905081810360008301526114768161143a565b9050919050565b7f4e487b7100000000000000000000000000000000000000000000000000000000600052603260045260246000fd5b7f5374616b6520616c7265616479204c6971756964617465640000000000000000600082015250565b60006114e2601883611331565b91506114ed826114ac565b602082019050919050565b60006020820190508181036000830152611511816114d5565b9050919050565b600061152382610fc7565b915061152e83610fc7565b9250828201905080821115611546576115456113ae565b5b92915050565b60006040820190506115616000830185611307565b61156e602083018461113e565b9392505050565b61157e8161107a565b811461158957600080fd5b50565b60008151905061159b81611575565b92915050565b6000602082840312156115b7576115b6610fc2565b5b60006115c58482850161158c565b91505092915050565b7f546f6b656e207472616e73666572206661696c65640000000000000000000000600082015250565b6000611604601583611331565b915061160f826115ce565b602082019050919050565b60006020820190508181036000830152611633816115f7565b9050919050565b7f496e76616c6964207374616b696e67206475726174696f6e0000000000000000600082015250565b6000611670601883611331565b915061167b8261163a565b602082019050919050565b6000602082019050818103600083015261169f81611663565b9050919050565b6000815190506116b581610fd1565b92915050565b6000602082840312156116d1576116d0610fc2565b5b60006116df848285016116a6565b91505092915050565b7f496e73756666696369656e742046756e64730000000000000000000000000000600082015250565b600061171e601283611331565b9150611729826116e8565b602082019050919050565b6000602082019050818103600083015261174d81611711565b9050919050565b60006040820190506117696000830185611307565b6117766020830184611307565b9392505050565b7f496e73756666696369656e7420416c6c6f77616e636500000000000000000000600082015250565b60006117b3601683611331565b91506117be8261177d565b602082019050919050565b600060208201905081810360008301526117e2816117a6565b9050919050565b60006060820190506117fe6000830186611307565b61180b6020830185611307565b611818604083018461113e565b949350505050565b600061182b82610fc7565b915061183683610fc7565b925082820261184481610fc7565b9150828204841483151761185b5761185a6113ae565b5b5092915050565b7f4e487b7100000000000000000000000000000000000000000000000000000000600052601260045260246000fd5b600061189c82610fc7565b91506118a783610fc7565b9250826118b7576118b6611862565b5b82820490509291505056fea2646970667358221220f1979009e4ff65efa489fdd72a145722912fd1f074eec14ebbc9fb548f771be764736f6c634300081a0033",
  "linkReferences": {},
  "deployedLinkReferences": {}
}