{
  "_format": "hh-sol-artifact-1",
  "contractName": "MindToken",
  "sourceName": "contracts/MindToken.sol",
  "abi": [
    {
      "inputs": [],
      "stateMutability": "nonpayable",
      "type": "constructor"
    },
    {
      "inputs": [
        {
          "internalType": "address",
          "name": "spender",
          "type": "address"
        },
        {
          "internalType": "uint256",
          "name": "allowance",
          "type": "uint256"
        },
        {
          "internalType": "uint256",
          "name": "needed",
          "type": "uint256"
        }
      ],
      "name": "ERC20InsufficientAllowance",
      "type": "error"
    },
    {
      "inputs": [
        {
          "internalType": "address",
          "name": "sender",
          "type": "address"
        },
        {
          "internalType": "uint256",
          "name": "balance",
          "type": "uint256"
        },
        {
          "internalType": "uint256",
          "name": "needed",
          "type": "uint256"
        }
      ],
      "name": "ERC20InsufficientBalance",
      "type": "error"
    },
    {
      "inputs": [
        {
          "internalType": "address",
          "name": "approver",
          "type": "address"
        }
      ],
      "name": "ERC20InvalidApprover",
      "type": "error"
    },
    {
      "inputs": [
        {
          "internalType": "address",
          "name": "receiver",
          "type": "address"
        }
      ],
      "name": "ERC20InvalidReceiver",
      "type": "error"
    },
    {
      "inputs": [
        {
          "internalType": "address",
          "name": "sender",
          "type": "address"
        }
      ],
      "name": "ERC20InvalidSender",
      "type": "error"
    },
    {
      "inputs": [
        {
          "internalType": "address",
          "name": "spender",
          "type": "address"
        }
      ],
      "name": "ERC20InvalidSpender",
      "type": "error"
    },
    {
      "anonymous": false,
      "inputs": [
        {
          "indexed": true,
          "internalType": "address",
          "name": "owner",
          "type": "address"
        },
        {
          "indexed": true,
          "internalType": "address",
          "name": "spender",
          "type": "address"
        },
        {
          "indexed": false,
          "internalType": "uint256",
          "name": "value",
          "type": "uint256"
        }
      ],
      "name": "Approval",
      "type": "event"
    },
    {
      "anonymous": false,
      "inputs": [
        {
          "indexed": true,
          "internalType": "address",
          "name": "from",
          "type": "address"
        },
        {
          "indexed": true,
          "internalType": "address",
          "name": "to",
          "type": "address"
        },
        {
          "indexed": false,
          "internalType": "uint256",
          "name": "value",
          "type": "uint256"
        }
      ],
      "name": "Transfer",
      "type": "event"
    },
    {
      "inputs": [],
      "name": "OWNER",
      "outputs": [
        {
          "internalType": "address",
          "name": "",
          "type": "address"
        }
      ],
      "stateMutability": "view",
      "type": "function"
    },
    {
      "inputs": [
        {
          "internalType": "address",
          "name": "owner",
          "type": "address"
        },
        {
          "internalType": "address",
          "name": "spender",
          "type": "address"
        }
      ],
      "name": "allowance",
      "outputs": [
        {
          "internalType": "uint256",
          "name": "",
          "type": "uint256"
        }
      ],
      "stateMutability": "view",
      "type": "function"
    },
    {
      "inputs": [
        {
          "internalType": "address",
          "name": "spender",
          "type": "address"
        },
        {
          "internalType": "uint256",
          "name": "value",
          "type": "uint256"
        }
      ],
      "name": "approve",
      "outputs": [
        {
          "internalType": "bool",
          "name": "",
          "type": "bool"
        }
      ],
      "stateMutability": "nonpayable",
      "type": "function"
    },
    {
      "inputs": [
        {
          "internalType": "address",
          "name": "account",
          "type": "address"
        }
      ],
      "name": "balanceOf",
      "outputs": [
        {
          "internalType": "uint256",
          "name": "",
          "type": "uint256"
        }
      ],
      "stateMutability": "view",
      "type": "function"
    },
    {
      "inputs": [],
      "name": "decimals",
      "outputs": [
        {
          "internalType": "uint8",
          "name": "",
          "type": "uint8"
        }
      ],
      "stateMutability": "pure",
      "type": "function"
    },
    {
      "inputs": [],
      "name": "mint",
      "outputs": [],
      "stateMutability": "nonpayable",
      "type": "function"
    },
    {
      "inputs": [],
      "name": "name",
      "outputs": [
        {
          "internalType": "string",
          "name": "",
          "type": "string"
        }
      ],
      "stateMutability": "view",
      "type": "function"
    },
    {
      "inputs": [],
      "name": "symbol",
      "outputs": [
        {
          "internalType": "string",
          "name": "",
          "type": "string"
        }
      ],
      "stateMutability": "view",
      "type": "function"
    },
    {
      "inputs": [],
      "name": "totalSupply",
      "outputs": [
        {
          "internalType": "uint256",
          "name": "",
          "type": "uint256"
        }
      ],
      "stateMutability": "view",
      "type": "function"
    },
    {
      "inputs": [
        {
          "internalType": "address",
          "name": "to",
          "type": "address"
        },
        {
          "internalType": "uint256",
          "name": "value",
          "type": "uint256"
        }
      ],
      "name": "transfer",
      "outputs": [
        {
          "internalType": "bool",
          "name": "",
          "type": "bool"
        }
      ],
      "stateMutability": "nonpayable",
      "type": "function"
    },
    {
      "inputs": [
        {
          "internalType": "address",
          "name": "from",
          "type": "address"
        },
        {
          "internalType": "address",
          "name": "to",
          "type": "address"
        },
        {
          "internalType": "uint256",
          "name": "value",
          "type": "uint256"
        }
      ],
      "name": "transferFrom",
      "outputs": [
        {
          "internalType": "bool",
          "name": "",
          "type": "bool"
        }
      ],
      "stateMutability": "nonpayable",
      "type": "function"
    }
  ],
  "bytecode": "0x60a060405234801561001057600080fd5b506040518060400160405280600981526020017f4d696e64546f6b656e00000000000000000000000000000000000000000000008152506040518060400160405280600381526020017f4d4e440000000000000000000000000000000000000000000000000000000000815250816003908161008c91906105e7565b50806004908161009c91906105e7565b5050503373ffffffffffffffffffffffffffffffffffffffff1660808173ffffffffffffffffffffffffffffffffffffffff16815250506100e5336103e86100ea60201b60201c565b6107d9565b600073ffffffffffffffffffffffffffffffffffffffff168273ffffffffffffffffffffffffffffffffffffffff160361015c5760006040517fec442f0500000000000000000000000000000000000000000000000000000000815260040161015391906106fa565b60405180910390fd5b61016e6000838361017260201b60201c565b5050565b600073ffffffffffffffffffffffffffffffffffffffff168373ffffffffffffffffffffffffffffffffffffffff16036101c45780600260008282546101b89190610744565b92505081905550610297565b60008060008573ffffffffffffffffffffffffffffffffffffffff1673ffffffffffffffffffffffffffffffffffffffff16815260200190815260200160002054905081811015610250578381836040517fe450d38c00000000000000000000000000000000000000000000000000000000815260040161024793929190610787565b60405180910390fd5b8181036000808673ffffffffffffffffffffffffffffffffffffffff1673ffffffffffffffffffffffffffffffffffffffff16815260200190815260200160002081905550505b600073ffffffffffffffffffffffffffffffffffffffff168273ffffffffffffffffffffffffffffffffffffffff16036102e0578060026000828254039250508190555061032d565b806000808473ffffffffffffffffffffffffffffffffffffffff1673ffffffffffffffffffffffffffffffffffffffff168152602001908152602001600020600082825401925050819055505b8173ffffffffffffffffffffffffffffffffffffffff168373ffffffffffffffffffffffffffffffffffffffff167fddf252ad1be2c89b69c2b068fc378daa952ba7f163c4a11628f55a4df523b3ef8360405161038a91906107be565b60405180910390a3505050565b600081519050919050565b7f4e487b7100000000000000000000000000000000000000000000000000000000600052604160045260246000fd5b7f4e487b7100000000000000000000000000000000000000000000000000000000600052602260045260246000fd5b6000600282049050600182168061041857607f821691505b60208210810361042b5761042a6103d1565b5b50919050565b60008190508160005260206000209050919050565b60006020601f8301049050919050565b600082821b905092915050565b6000600883026104937fffffffffffffffffffffffffffffffffffffffffffffffffffffffffffffffff82610456565b61049d8683610456565b95508019841693508086168417925050509392505050565b6000819050919050565b6000819050919050565b60006104e46104df6104da846104b5565b6104bf565b6104b5565b9050919050565b6000819050919050565b6104fe836104c9565b61051261050a826104eb565b848454610463565b825550505050565b600090565b61052761051a565b6105328184846104f5565b505050565b5b818110156105565761054b60008261051f565b600181019050610538565b5050565b601f82111561059b5761056c81610431565b61057584610446565b81016020851015610584578190505b61059861059085610446565b830182610537565b50505b505050565b600082821c905092915050565b60006105be600019846008026105a0565b1980831691505092915050565b60006105d783836105ad565b9150826002028217905092915050565b6105f082610397565b67ffffffffffffffff811115610609576106086103a2565b5b6106138254610400565b61061e82828561055a565b600060209050601f831160018114610651576000841561063f578287015190505b61064985826105cb565b8655506106b1565b601f19841661065f86610431565b60005b8281101561068757848901518255600182019150602085019450602081019050610662565b868310156106a457848901516106a0601f8916826105ad565b8355505b6001600288020188555050505b505050505050565b600073ffffffffffffffffffffffffffffffffffffffff82169050919050565b60006106e4826106b9565b9050919050565b6106f4816106d9565b82525050565b600060208201905061070f60008301846106eb565b92915050565b7f4e487b7100000000000000000000000000000000000000000000000000000000600052601160045260246000fd5b600061074f826104b5565b915061075a836104b5565b925082820190508082111561077257610771610715565b5b92915050565b610781816104b5565b82525050565b600060608201905061079c60008301866106eb565b6107a96020830185610778565b6107b66040830184610778565b949350505050565b60006020820190506107d36000830184610778565b92915050565b6080516110406107fb600039600081816102f5015261031901526110406000f3fe608060405234801561001057600080fd5b50600436106100a95760003560e01c806323b872dd1161007157806323b872dd14610142578063313ce5671461017257806370a082311461019057806395d89b41146101c0578063a9059cbb146101de578063dd62ed3e1461020e576100a9565b806306fdde03146100ae578063095ea7b3146100cc578063117803e3146100fc5780631249c58b1461011a57806318160ddd14610124575b600080fd5b6100b661023e565b6040516100c39190610c28565b60405180910390f35b6100e660048036038101906100e19190610ce3565b6102d0565b6040516100f39190610d3e565b60405180910390f35b6101046102f3565b6040516101119190610d68565b60405180910390f35b610122610317565b005b61012c6103b2565b6040516101399190610d92565b60405180910390f35b61015c60048036038101906101579190610dad565b6103bc565b6040516101699190610d3e565b60405180910390f35b61017a6103eb565b6040516101879190610e1c565b60405180910390f35b6101aa60048036038101906101a59190610e37565b6103f4565b6040516101b79190610d92565b60405180910390f35b6101c861043c565b6040516101d59190610c28565b60405180910390f35b6101f860048036038101906101f39190610ce3565b6104ce565b6040516102059190610d3e565b60405180910390f35b61022860048036038101906102239190610e64565b6104f1565b6040516102359190610d92565b60405180910390f35b60606003805461024d90610ed3565b80601f016020809104026020016040519081016040528092919081815260200182805461027990610ed3565b80156102c65780601f1061029b576101008083540402835291602001916102c6565b820191906000526020600020905b8154815290600101906020018083116102a957829003601f168201915b5050505050905090565b6000806102db610578565b90506102e8818585610580565b600191505092915050565b7f000000000000000000000000000000000000000000000000000000000000000081565b7f000000000000000000000000000000000000000000000000000000000000000073ffffffffffffffffffffffffffffffffffffffff163373ffffffffffffffffffffffffffffffffffffffff16146103a5576040517f08c379a000000000000000000000000000000000000000000000000000000000815260040161039c90610f50565b60405180910390fd5b6103b0336064610592565b565b6000600254905090565b6000806103c7610578565b90506103d4858285610614565b6103df8585856106a8565b60019150509392505050565b60006002905090565b60008060008373ffffffffffffffffffffffffffffffffffffffff1673ffffffffffffffffffffffffffffffffffffffff168152602001908152602001600020549050919050565b60606004805461044b90610ed3565b80601f016020809104026020016040519081016040528092919081815260200182805461047790610ed3565b80156104c45780601f10610499576101008083540402835291602001916104c4565b820191906000526020600020905b8154815290600101906020018083116104a757829003601f168201915b5050505050905090565b6000806104d9610578565b90506104e68185856106a8565b600191505092915050565b6000600160008473ffffffffffffffffffffffffffffffffffffffff1673ffffffffffffffffffffffffffffffffffffffff16815260200190815260200160002060008373ffffffffffffffffffffffffffffffffffffffff1673ffffffffffffffffffffffffffffffffffffffff16815260200190815260200160002054905092915050565b600033905090565b61058d838383600161079c565b505050565b600073ffffffffffffffffffffffffffffffffffffffff168273ffffffffffffffffffffffffffffffffffffffff16036106045760006040517fec442f050000000000000000000000000000000000000000000000000000000081526004016105fb9190610d68565b60405180910390fd5b61061060008383610973565b5050565b600061062084846104f1565b90507fffffffffffffffffffffffffffffffffffffffffffffffffffffffffffffffff81146106a25781811015610692578281836040517ffb8f41b200000000000000000000000000000000000000000000000000000000815260040161068993929190610f70565b60405180910390fd5b6106a18484848403600061079c565b5b50505050565b600073ffffffffffffffffffffffffffffffffffffffff168373ffffffffffffffffffffffffffffffffffffffff160361071a5760006040517f96c6fd1e0000000000000000000000000000000000000000000000000000000081526004016107119190610d68565b60405180910390fd5b600073ffffffffffffffffffffffffffffffffffffffff168273ffffffffffffffffffffffffffffffffffffffff160361078c5760006040517fec442f050000000000000000000000000000000000000000000000000000000081526004016107839190610d68565b60405180910390fd5b610797838383610973565b505050565b600073ffffffffffffffffffffffffffffffffffffffff168473ffffffffffffffffffffffffffffffffffffffff160361080e5760006040517fe602df050000000000000000000000000000000000000000000000000000000081526004016108059190610d68565b60405180910390fd5b600073ffffffffffffffffffffffffffffffffffffffff168373ffffffffffffffffffffffffffffffffffffffff16036108805760006040517f94280d620000000000000000000000000000000000000000000000000000000081526004016108779190610d68565b60405180910390fd5b81600160008673ffffffffffffffffffffffffffffffffffffffff1673ffffffffffffffffffffffffffffffffffffffff16815260200190815260200160002060008573ffffffffffffffffffffffffffffffffffffffff1673ffffffffffffffffffffffffffffffffffffffff16815260200190815260200160002081905550801561096d578273ffffffffffffffffffffffffffffffffffffffff168473ffffffffffffffffffffffffffffffffffffffff167f8c5be1e5ebec7d5bd14f71427d1e84f3dd0314c0f7b2291e5b200ac8c7c3b925846040516109649190610d92565b60405180910390a35b50505050565b600073ffffffffffffffffffffffffffffffffffffffff168373ffffffffffffffffffffffffffffffffffffffff16036109c55780600260008282546109b99190610fd6565b92505081905550610a98565b60008060008573ffffffffffffffffffffffffffffffffffffffff1673ffffffffffffffffffffffffffffffffffffffff16815260200190815260200160002054905081811015610a51578381836040517fe450d38c000000000000000000000000000000000000000000000000000000008152600401610a4893929190610f70565b60405180910390fd5b8181036000808673ffffffffffffffffffffffffffffffffffffffff1673ffffffffffffffffffffffffffffffffffffffff16815260200190815260200160002081905550505b600073ffffffffffffffffffffffffffffffffffffffff168273ffffffffffffffffffffffffffffffffffffffff1603610ae15780600260008282540392505081905550610b2e565b806000808473ffffffffffffffffffffffffffffffffffffffff1673ffffffffffffffffffffffffffffffffffffffff168152602001908152602001600020600082825401925050819055505b8173ffffffffffffffffffffffffffffffffffffffff168373ffffffffffffffffffffffffffffffffffffffff167fddf252ad1be2c89b69c2b068fc378daa952ba7f163c4a11628f55a4df523b3ef83604051610b8b9190610d92565b60405180910390a3505050565b600081519050919050565b600082825260208201905092915050565b60005b83811015610bd2578082015181840152602081019050610bb7565b60008484015250505050565b6000601f19601f8301169050919050565b6000610bfa82610b98565b610c048185610ba3565b9350610c14818560208601610bb4565b610c1d81610bde565b840191505092915050565b60006020820190508181036000830152610c428184610bef565b905092915050565b600080fd5b600073ffffffffffffffffffffffffffffffffffffffff82169050919050565b6000610c7a82610c4f565b9050919050565b610c8a81610c6f565b8114610c9557600080fd5b50565b600081359050610ca781610c81565b92915050565b6000819050919050565b610cc081610cad565b8114610ccb57600080fd5b50565b600081359050610cdd81610cb7565b92915050565b60008060408385031215610cfa57610cf9610c4a565b5b6000610d0885828601610c98565b9250506020610d1985828601610cce565b9150509250929050565b60008115159050919050565b610d3881610d23565b82525050565b6000602082019050610d536000830184610d2f565b92915050565b610d6281610c6f565b82525050565b6000602082019050610d7d6000830184610d59565b92915050565b610d8c81610cad565b82525050565b6000602082019050610da76000830184610d83565b92915050565b600080600060608486031215610dc657610dc5610c4a565b5b6000610dd486828701610c98565b9350506020610de586828701610c98565b9250506040610df686828701610cce565b9150509250925092565b600060ff82169050919050565b610e1681610e00565b82525050565b6000602082019050610e316000830184610e0d565b92915050565b600060208284031215610e4d57610e4c610c4a565b5b6000610e5b84828501610c98565b91505092915050565b60008060408385031215610e7b57610e7a610c4a565b5b6000610e8985828601610c98565b9250506020610e9a85828601610c98565b9150509250929050565b7f4e487b7100000000000000000000000000000000000000000000000000000000600052602260045260246000fd5b60006002820490506001821680610eeb57607f821691505b602082108103610efe57610efd610ea4565b5b50919050565b7f596f7520617265206e6f7420746865206f776e65720000000000000000000000600082015250565b6000610f3a601583610ba3565b9150610f4582610f04565b602082019050919050565b60006020820190508181036000830152610f6981610f2d565b9050919050565b6000606082019050610f856000830186610d59565b610f926020830185610d83565b610f9f6040830184610d83565b949350505050565b7f4e487b7100000000000000000000000000000000000000000000000000000000600052601160045260246000fd5b6000610fe182610cad565b9150610fec83610cad565b925082820190508082111561100457611003610fa7565b5b9291505056fea2646970667358221220e7845a30959b72c7e1b72f828d39987b535beb04a7963e57fc1d1a9cdbf56d7d64736f6c634300081a0033",
  "linkReferences": {},
  "deployedLinkReferences": {}
}